{
  "_format": "hh-sol-artifact-1",
  "contractName": "SpaceCoin",
  "sourceName": "contracts/SpaceCoin.sol",
  "abi": [
    {
      "inputs": [
        {
          "internalType": "address",
          "name": "ICOAddress",
          "type": "address"
        },
        {
          "internalType": "address",
          "name": "_treasury",
          "type": "address"
        }
      ],
      "stateMutability": "nonpayable",
      "type": "constructor"
    },
    {
      "anonymous": false,
      "inputs": [
        {
          "indexed": true,
          "internalType": "address",
          "name": "owner",
          "type": "address"
        },
        {
          "indexed": true,
          "internalType": "address",
          "name": "spender",
          "type": "address"
        },
        {
          "indexed": false,
          "internalType": "uint256",
          "name": "value",
          "type": "uint256"
        }
      ],
      "name": "Approval",
      "type": "event"
    },
    {
      "anonymous": false,
      "inputs": [
        {
          "indexed": true,
          "internalType": "address",
          "name": "from",
          "type": "address"
        },
        {
          "indexed": true,
          "internalType": "address",
          "name": "to",
          "type": "address"
        },
        {
          "indexed": false,
          "internalType": "uint256",
          "name": "value",
          "type": "uint256"
        }
      ],
      "name": "Transfer",
      "type": "event"
    },
    {
      "inputs": [
        {
          "internalType": "address",
          "name": "owner",
          "type": "address"
        },
        {
          "internalType": "address",
          "name": "spender",
          "type": "address"
        }
      ],
      "name": "allowance",
      "outputs": [
        {
          "internalType": "uint256",
          "name": "",
          "type": "uint256"
        }
      ],
      "stateMutability": "view",
      "type": "function"
    },
    {
      "inputs": [
        {
          "internalType": "address",
          "name": "spender",
          "type": "address"
        },
        {
          "internalType": "uint256",
          "name": "amount",
          "type": "uint256"
        }
      ],
      "name": "approve",
      "outputs": [
        {
          "internalType": "bool",
          "name": "",
          "type": "bool"
        }
      ],
      "stateMutability": "nonpayable",
      "type": "function"
    },
    {
      "inputs": [
        {
          "internalType": "address",
          "name": "account",
          "type": "address"
        }
      ],
      "name": "balanceOf",
      "outputs": [
        {
          "internalType": "uint256",
          "name": "",
          "type": "uint256"
        }
      ],
      "stateMutability": "view",
      "type": "function"
    },
    {
      "inputs": [],
      "name": "decimals",
      "outputs": [
        {
          "internalType": "uint8",
          "name": "",
          "type": "uint8"
        }
      ],
      "stateMutability": "view",
      "type": "function"
    },
    {
      "inputs": [
        {
          "internalType": "address",
          "name": "spender",
          "type": "address"
        },
        {
          "internalType": "uint256",
          "name": "subtractedValue",
          "type": "uint256"
        }
      ],
      "name": "decreaseAllowance",
      "outputs": [
        {
          "internalType": "bool",
          "name": "",
          "type": "bool"
        }
      ],
      "stateMutability": "nonpayable",
      "type": "function"
    },
    {
      "inputs": [
        {
          "internalType": "address",
          "name": "spender",
          "type": "address"
        },
        {
          "internalType": "uint256",
          "name": "addedValue",
          "type": "uint256"
        }
      ],
      "name": "increaseAllowance",
      "outputs": [
        {
          "internalType": "bool",
          "name": "",
          "type": "bool"
        }
      ],
      "stateMutability": "nonpayable",
      "type": "function"
    },
    {
      "inputs": [],
      "name": "isTrasferTaxActive",
      "outputs": [
        {
          "internalType": "bool",
          "name": "",
          "type": "bool"
        }
      ],
      "stateMutability": "view",
      "type": "function"
    },
    {
      "inputs": [],
      "name": "name",
      "outputs": [
        {
          "internalType": "string",
          "name": "",
          "type": "string"
        }
      ],
      "stateMutability": "view",
      "type": "function"
    },
    {
      "inputs": [],
      "name": "spaceCoinICO",
      "outputs": [
        {
          "internalType": "contract SpaceCoinICO",
          "name": "",
          "type": "address"
        }
      ],
      "stateMutability": "view",
      "type": "function"
    },
    {
      "inputs": [],
      "name": "symbol",
      "outputs": [
        {
          "internalType": "string",
          "name": "",
          "type": "string"
        }
      ],
      "stateMutability": "view",
      "type": "function"
    },
    {
      "inputs": [],
      "name": "toggleTax",
      "outputs": [],
      "stateMutability": "nonpayable",
      "type": "function"
    },
    {
      "inputs": [],
      "name": "totalSupply",
      "outputs": [
        {
          "internalType": "uint256",
          "name": "",
          "type": "uint256"
        }
      ],
      "stateMutability": "view",
      "type": "function"
    },
    {
      "inputs": [
        {
          "internalType": "address",
          "name": "to",
          "type": "address"
        },
        {
          "internalType": "uint256",
          "name": "amount",
          "type": "uint256"
        }
      ],
      "name": "transfer",
      "outputs": [
        {
          "internalType": "bool",
          "name": "",
          "type": "bool"
        }
      ],
      "stateMutability": "nonpayable",
      "type": "function"
    },
    {
      "inputs": [
        {
          "internalType": "address",
          "name": "from",
          "type": "address"
        },
        {
          "internalType": "address",
          "name": "to",
          "type": "address"
        },
        {
          "internalType": "uint256",
          "name": "amount",
          "type": "uint256"
        }
      ],
      "name": "transferFrom",
      "outputs": [
        {
          "internalType": "bool",
          "name": "",
          "type": "bool"
        }
      ],
      "stateMutability": "nonpayable",
      "type": "function"
    }
  ],
  "bytecode": "0x60c06040523480156200001157600080fd5b5060405162001d7a38038062001d7a8339818101604052810190620000379190620003eb565b6040518060400160405280600981526020017f5370616365436f696e00000000000000000000000000000000000000000000008152506040518060400160405280600481526020017f53504345000000000000000000000000000000000000000000000000000000008152508160039080519060200190620000bb92919062000324565b508060049080519060200190620000d492919062000324565b5050508173ffffffffffffffffffffffffffffffffffffffff1660a08173ffffffffffffffffffffffffffffffffffffffff1660601b815250508073ffffffffffffffffffffffffffffffffffffffff1660808173ffffffffffffffffffffffffffffffffffffffff1660601b815250506200016f81670de0b6b3a76400006205573062000163919062000511565b620001a160201b60201c565b6200019982670de0b6b3a7640000620249f06200018d919062000511565b620001a160201b60201c565b505062000687565b600073ffffffffffffffffffffffffffffffffffffffff168273ffffffffffffffffffffffffffffffffffffffff16141562000214576040517f08c379a00000000000000000000000000000000000000000000000000000000081526004016200020b9062000464565b60405180910390fd5b62000228600083836200031a60201b60201c565b80600260008282546200023c9190620004b4565b92505081905550806000808473ffffffffffffffffffffffffffffffffffffffff1673ffffffffffffffffffffffffffffffffffffffff1681526020019081526020016000206000828254620002939190620004b4565b925050819055508173ffffffffffffffffffffffffffffffffffffffff16600073ffffffffffffffffffffffffffffffffffffffff167fddf252ad1be2c89b69c2b068fc378daa952ba7f163c4a11628f55a4df523b3ef83604051620002fa919062000486565b60405180910390a362000316600083836200031f60201b60201c565b5050565b505050565b505050565b8280546200033290620005b0565b90600052602060002090601f016020900481019282620003565760008555620003a2565b82601f106200037157805160ff1916838001178555620003a2565b82800160010185558215620003a2579182015b82811115620003a157825182559160200191906001019062000384565b5b509050620003b19190620003b5565b5090565b5b80821115620003d0576000816000905550600101620003b6565b5090565b600081519050620003e5816200066d565b92915050565b60008060408385031215620003ff57600080fd5b60006200040f85828601620003d4565b92505060206200042285828601620003d4565b9150509250929050565b60006200043b601f83620004a3565b9150620004488262000644565b602082019050919050565b6200045e81620005a6565b82525050565b600060208201905081810360008301526200047f816200042c565b9050919050565b60006020820190506200049d600083018462000453565b92915050565b600082825260208201905092915050565b6000620004c182620005a6565b9150620004ce83620005a6565b9250827fffffffffffffffffffffffffffffffffffffffffffffffffffffffffffffffff03821115620005065762000505620005e6565b5b828201905092915050565b60006200051e82620005a6565b91506200052b83620005a6565b9250817fffffffffffffffffffffffffffffffffffffffffffffffffffffffffffffffff0483118215151615620005675762000566620005e6565b5b828202905092915050565b60006200057f8262000586565b9050919050565b600073ffffffffffffffffffffffffffffffffffffffff82169050919050565b6000819050919050565b60006002820490506001821680620005c957607f821691505b60208210811415620005e057620005df62000615565b5b50919050565b7f4e487b7100000000000000000000000000000000000000000000000000000000600052601160045260246000fd5b7f4e487b7100000000000000000000000000000000000000000000000000000000600052602260045260246000fd5b7f45524332303a206d696e7420746f20746865207a65726f206164647265737300600082015250565b620006788162000572565b81146200068457600080fd5b50565b60805160601c60a05160601c6116b2620006c86000396000818161054201526109d00152600081816103b40152818161097a0152610a6201526116b26000f3fe608060405234801561001057600080fd5b50600436106100ea5760003560e01c8063395093511161008c57806395d89b411161006657806395d89b411461024f578063a457c2d71461026d578063a9059cbb1461029d578063dd62ed3e146102cd576100ea565b806339509351146101d157806370a08231146102015780637d3d9b1c14610231576100ea565b806311627200116100c8578063116272001461014757806318160ddd1461016557806323b872dd14610183578063313ce567146101b3576100ea565b806306fdde03146100ef578063095ea7b31461010d57806310bf60291461013d575b600080fd5b6100f76102fd565b604051610104919061101d565b60405180910390f35b61012760048036038101906101229190610e1e565b61038f565b6040516101349190610fe7565b60405180910390f35b6101456103b2565b005b61014f61046c565b60405161015c9190610fe7565b60405180910390f35b61016d61047f565b60405161017a919061113f565b60405180910390f35b61019d60048036038101906101989190610dcf565b610489565b6040516101aa9190610fe7565b60405180910390f35b6101bb6104b8565b6040516101c8919061115a565b60405180910390f35b6101eb60048036038101906101e69190610e1e565b6104c1565b6040516101f89190610fe7565b60405180910390f35b61021b60048036038101906102169190610d6a565b6104f8565b604051610228919061113f565b60405180910390f35b610239610540565b6040516102469190611002565b60405180910390f35b610257610564565b604051610264919061101d565b60405180910390f35b61028760048036038101906102829190610e1e565b6105f6565b6040516102949190610fe7565b60405180910390f35b6102b760048036038101906102b29190610e1e565b61066d565b6040516102c49190610fe7565b60405180910390f35b6102e760048036038101906102e29190610d93565b610690565b6040516102f4919061113f565b60405180910390f35b60606003805461030c90611352565b80601f016020809104026020016040519081016040528092919081815260200182805461033890611352565b80156103855780601f1061035a57610100808354040283529160200191610385565b820191906000526020600020905b81548152906001019060200180831161036857829003601f168201915b5050505050905090565b60008061039a610717565b90506103a781858561071f565b600191505092915050565b7f000000000000000000000000000000000000000000000000000000000000000073ffffffffffffffffffffffffffffffffffffffff163373ffffffffffffffffffffffffffffffffffffffff1614610440576040517f08c379a0000000000000000000000000000000000000000000000000000000008152600401610437906110df565b60405180910390fd5b600560009054906101000a900460ff1615600560006101000a81548160ff021916908315150217905550565b600560009054906101000a900460ff1681565b6000600254905090565b600080610494610717565b90506104a18582856108ea565b6104ac858585610976565b60019150509392505050565b60006012905090565b6000806104cc610717565b90506104ed8185856104de8589610690565b6104e89190611191565b61071f565b600191505092915050565b60008060008373ffffffffffffffffffffffffffffffffffffffff1673ffffffffffffffffffffffffffffffffffffffff168152602001908152602001600020549050919050565b7f000000000000000000000000000000000000000000000000000000000000000081565b60606004805461057390611352565b80601f016020809104026020016040519081016040528092919081815260200182805461059f90611352565b80156105ec5780601f106105c1576101008083540402835291602001916105ec565b820191906000526020600020905b8154815290600101906020018083116105cf57829003601f168201915b5050505050905090565b600080610601610717565b9050600061060f8286610690565b905083811015610654576040517f08c379a000000000000000000000000000000000000000000000000000000000815260040161064b9061111f565b60405180910390fd5b610661828686840361071f565b60019250505092915050565b600080610678610717565b9050610685818585610976565b600191505092915050565b6000600160008473ffffffffffffffffffffffffffffffffffffffff1673ffffffffffffffffffffffffffffffffffffffff16815260200190815260200160002060008373ffffffffffffffffffffffffffffffffffffffff1673ffffffffffffffffffffffffffffffffffffffff16815260200190815260200160002054905092915050565b600033905090565b600073ffffffffffffffffffffffffffffffffffffffff168373ffffffffffffffffffffffffffffffffffffffff16141561078f576040517f08c379a0000000000000000000000000000000000000000000000000000000008152600401610786906110ff565b60405180910390fd5b600073ffffffffffffffffffffffffffffffffffffffff168273ffffffffffffffffffffffffffffffffffffffff1614156107ff576040517f08c379a00000000000000000000000000000000000000000000000000000000081526004016107f69061105f565b60405180910390fd5b80600160008573ffffffffffffffffffffffffffffffffffffffff1673ffffffffffffffffffffffffffffffffffffffff16815260200190815260200160002060008473ffffffffffffffffffffffffffffffffffffffff1673ffffffffffffffffffffffffffffffffffffffff168152602001908152602001600020819055508173ffffffffffffffffffffffffffffffffffffffff168373ffffffffffffffffffffffffffffffffffffffff167f8c5be1e5ebec7d5bd14f71427d1e84f3dd0314c0f7b2291e5b200ac8c7c3b925836040516108dd919061113f565b60405180910390a3505050565b60006108f68484610690565b90507fffffffffffffffffffffffffffffffffffffffffffffffffffffffffffffffff81146109705781811015610962576040517f08c379a00000000000000000000000000000000000000000000000000000000081526004016109599061107f565b60405180910390fd5b61096f848484840361071f565b5b50505050565b60007f000000000000000000000000000000000000000000000000000000000000000073ffffffffffffffffffffffffffffffffffffffff168473ffffffffffffffffffffffffffffffffffffffff16141580610a1f57507f000000000000000000000000000000000000000000000000000000000000000073ffffffffffffffffffffffffffffffffffffffff168473ffffffffffffffffffffffffffffffffffffffff1614155b8015610a375750600560009054906101000a900460ff165b90508015610aa35760006064600284610a509190611218565b610a5a91906111e7565b9050610a87857f000000000000000000000000000000000000000000000000000000000000000083610ab5565b610a9d85858386610a989190611272565b610ab5565b50610aaf565b610aae848484610ab5565b5b50505050565b600073ffffffffffffffffffffffffffffffffffffffff168373ffffffffffffffffffffffffffffffffffffffff161415610b25576040517f08c379a0000000000000000000000000000000000000000000000000000000008152600401610b1c906110bf565b60405180910390fd5b600073ffffffffffffffffffffffffffffffffffffffff168273ffffffffffffffffffffffffffffffffffffffff161415610b95576040517f08c379a0000000000000000000000000000000000000000000000000000000008152600401610b8c9061103f565b60405180910390fd5b610ba0838383610d36565b60008060008573ffffffffffffffffffffffffffffffffffffffff1673ffffffffffffffffffffffffffffffffffffffff16815260200190815260200160002054905081811015610c26576040517f08c379a0000000000000000000000000000000000000000000000000000000008152600401610c1d9061109f565b60405180910390fd5b8181036000808673ffffffffffffffffffffffffffffffffffffffff1673ffffffffffffffffffffffffffffffffffffffff16815260200190815260200160002081905550816000808573ffffffffffffffffffffffffffffffffffffffff1673ffffffffffffffffffffffffffffffffffffffff1681526020019081526020016000206000828254610cb99190611191565b925050819055508273ffffffffffffffffffffffffffffffffffffffff168473ffffffffffffffffffffffffffffffffffffffff167fddf252ad1be2c89b69c2b068fc378daa952ba7f163c4a11628f55a4df523b3ef84604051610d1d919061113f565b60405180910390a3610d30848484610d3b565b50505050565b505050565b505050565b600081359050610d4f8161164e565b92915050565b600081359050610d6481611665565b92915050565b600060208284031215610d7c57600080fd5b6000610d8a84828501610d40565b91505092915050565b60008060408385031215610da657600080fd5b6000610db485828601610d40565b9250506020610dc585828601610d40565b9150509250929050565b600080600060608486031215610de457600080fd5b6000610df286828701610d40565b9350506020610e0386828701610d40565b9250506040610e1486828701610d55565b9150509250925092565b60008060408385031215610e3157600080fd5b6000610e3f85828601610d40565b9250506020610e5085828601610d55565b9150509250929050565b610e63816112b8565b82525050565b610e72816112fb565b82525050565b6000610e8382611175565b610e8d8185611180565b9350610e9d81856020860161131f565b610ea681611411565b840191505092915050565b6000610ebe602383611180565b9150610ec982611422565b604082019050919050565b6000610ee1602283611180565b9150610eec82611471565b604082019050919050565b6000610f04601d83611180565b9150610f0f826114c0565b602082019050919050565b6000610f27602683611180565b9150610f32826114e9565b604082019050919050565b6000610f4a602583611180565b9150610f5582611538565b604082019050919050565b6000610f6d601383611180565b9150610f7882611587565b602082019050919050565b6000610f90602483611180565b9150610f9b826115b0565b604082019050919050565b6000610fb3602583611180565b9150610fbe826115ff565b604082019050919050565b610fd2816112e4565b82525050565b610fe1816112ee565b82525050565b6000602082019050610ffc6000830184610e5a565b92915050565b60006020820190506110176000830184610e69565b92915050565b600060208201905081810360008301526110378184610e78565b905092915050565b6000602082019050818103600083015261105881610eb1565b9050919050565b6000602082019050818103600083015261107881610ed4565b9050919050565b6000602082019050818103600083015261109881610ef7565b9050919050565b600060208201905081810360008301526110b881610f1a565b9050919050565b600060208201905081810360008301526110d881610f3d565b9050919050565b600060208201905081810360008301526110f881610f60565b9050919050565b6000602082019050818103600083015261111881610f83565b9050919050565b6000602082019050818103600083015261113881610fa6565b9050919050565b60006020820190506111546000830184610fc9565b92915050565b600060208201905061116f6000830184610fd8565b92915050565b600081519050919050565b600082825260208201905092915050565b600061119c826112e4565b91506111a7836112e4565b9250827fffffffffffffffffffffffffffffffffffffffffffffffffffffffffffffffff038211156111dc576111db611384565b5b828201905092915050565b60006111f2826112e4565b91506111fd836112e4565b92508261120d5761120c6113b3565b5b828204905092915050565b6000611223826112e4565b915061122e836112e4565b9250817fffffffffffffffffffffffffffffffffffffffffffffffffffffffffffffffff048311821515161561126757611266611384565b5b828202905092915050565b600061127d826112e4565b9150611288836112e4565b92508282101561129b5761129a611384565b5b828203905092915050565b60006112b1826112c4565b9050919050565b60008115159050919050565b600073ffffffffffffffffffffffffffffffffffffffff82169050919050565b6000819050919050565b600060ff82169050919050565b60006113068261130d565b9050919050565b6000611318826112c4565b9050919050565b60005b8381101561133d578082015181840152602081019050611322565b8381111561134c576000848401525b50505050565b6000600282049050600182168061136a57607f821691505b6020821081141561137e5761137d6113e2565b5b50919050565b7f4e487b7100000000000000000000000000000000000000000000000000000000600052601160045260246000fd5b7f4e487b7100000000000000000000000000000000000000000000000000000000600052601260045260246000fd5b7f4e487b7100000000000000000000000000000000000000000000000000000000600052602260045260246000fd5b6000601f19601f8301169050919050565b7f45524332303a207472616e7366657220746f20746865207a65726f206164647260008201527f6573730000000000000000000000000000000000000000000000000000000000602082015250565b7f45524332303a20617070726f766520746f20746865207a65726f20616464726560008201527f7373000000000000000000000000000000000000000000000000000000000000602082015250565b7f45524332303a20696e73756666696369656e7420616c6c6f77616e6365000000600082015250565b7f45524332303a207472616e7366657220616d6f756e742065786365656473206260008201527f616c616e63650000000000000000000000000000000000000000000000000000602082015250565b7f45524332303a207472616e736665722066726f6d20746865207a65726f20616460008201527f6472657373000000000000000000000000000000000000000000000000000000602082015250565b7f5265717569726573204f6e6c79204f776e657200000000000000000000000000600082015250565b7f45524332303a20617070726f76652066726f6d20746865207a65726f2061646460008201527f7265737300000000000000000000000000000000000000000000000000000000602082015250565b7f45524332303a2064656372656173656420616c6c6f77616e63652062656c6f7760008201527f207a65726f000000000000000000000000000000000000000000000000000000602082015250565b611657816112a6565b811461166257600080fd5b50565b61166e816112e4565b811461167957600080fd5b5056fea26469706673582212204f1686ebbb2170395ac301317c48df53ff5b19b9a5f218454f1da01669a67f5364736f6c63430008040033",
  "linkReferences": {},
  "deployedLinkReferences": {}
}