{
  "_format": "hh-sol-artifact-1",
  "contractName": "SpaceCoinICO",
  "sourceName": "contracts/SpaceCoinICO.sol",
  "abi": [
    {
      "inputs": [
        {
          "internalType": "address",
          "name": "_treasury",
          "type": "address"
        }
      ],
      "stateMutability": "nonpayable",
      "type": "constructor"
    },
    {
      "anonymous": false,
      "inputs": [
        {
          "indexed": true,
          "internalType": "address",
          "name": "addr",
          "type": "address"
        },
        {
          "indexed": false,
          "internalType": "uint256",
          "name": "amount",
          "type": "uint256"
        },
        {
          "indexed": false,
          "internalType": "enum SpaceCoinICO.ICO_PHASE",
          "name": "ICOPhase",
          "type": "uint8"
        },
        {
          "indexed": false,
          "internalType": "uint256",
          "name": "totalContributed",
          "type": "uint256"
        }
      ],
      "name": "Contribution",
      "type": "event"
    },
    {
      "anonymous": false,
      "inputs": [
        {
          "indexed": false,
          "internalType": "enum SpaceCoinICO.ICO_PHASE",
          "name": "ICOPhase",
          "type": "uint8"
        }
      ],
      "name": "PhaseAdvance",
      "type": "event"
    },
    {
      "anonymous": false,
      "inputs": [
        {
          "indexed": true,
          "internalType": "address",
          "name": "addr",
          "type": "address"
        },
        {
          "indexed": false,
          "internalType": "uint256",
          "name": "tokens",
          "type": "uint256"
        }
      ],
      "name": "ReedemTokens",
      "type": "event"
    },
    {
      "anonymous": false,
      "inputs": [
        {
          "indexed": true,
          "internalType": "address",
          "name": "addr",
          "type": "address"
        }
      ],
      "name": "WhitelistedAddress",
      "type": "event"
    },
    {
      "inputs": [],
      "name": "ICOPhase",
      "outputs": [
        {
          "internalType": "enum SpaceCoinICO.ICO_PHASE",
          "name": "",
          "type": "uint8"
        }
      ],
      "stateMutability": "view",
      "type": "function"
    },
    {
      "inputs": [
        {
          "internalType": "address[]",
          "name": "_whitelistedAddress",
          "type": "address[]"
        }
      ],
      "name": "addToWhitelist",
      "outputs": [],
      "stateMutability": "nonpayable",
      "type": "function"
    },
    {
      "inputs": [
        {
          "internalType": "enum SpaceCoinICO.ICO_PHASE",
          "name": "phase",
          "type": "uint8"
        }
      ],
      "name": "advanceICOPhase",
      "outputs": [],
      "stateMutability": "nonpayable",
      "type": "function"
    },
    {
      "inputs": [],
      "name": "contribute",
      "outputs": [],
      "stateMutability": "payable",
      "type": "function"
    },
    {
      "inputs": [],
      "name": "redeemTokens",
      "outputs": [],
      "stateMutability": "nonpayable",
      "type": "function"
    },
    {
      "inputs": [
        {
          "internalType": "address",
          "name": "",
          "type": "address"
        }
      ],
      "name": "reedeemableContributions",
      "outputs": [
        {
          "internalType": "uint256",
          "name": "",
          "type": "uint256"
        }
      ],
      "stateMutability": "view",
      "type": "function"
    },
    {
      "inputs": [
        {
          "internalType": "address",
          "name": "",
          "type": "address"
        }
      ],
      "name": "seedWhitelist",
      "outputs": [
        {
          "internalType": "bool",
          "name": "",
          "type": "bool"
        }
      ],
      "stateMutability": "view",
      "type": "function"
    },
    {
      "inputs": [
        {
          "internalType": "address",
          "name": "_spaceCoinAddress",
          "type": "address"
        }
      ],
      "name": "setSpaceCoinAddress",
      "outputs": [],
      "stateMutability": "nonpayable",
      "type": "function"
    },
    {
      "inputs": [],
      "name": "toggleAllowContributions",
      "outputs": [],
      "stateMutability": "nonpayable",
      "type": "function"
    },
    {
      "inputs": [],
      "name": "totalContributed",
      "outputs": [
        {
          "internalType": "uint256",
          "name": "",
          "type": "uint256"
        }
      ],
      "stateMutability": "view",
      "type": "function"
    },
    {
      "inputs": [],
      "name": "withdraw",
      "outputs": [
        {
          "internalType": "bool",
          "name": "success",
          "type": "bool"
        }
      ],
      "stateMutability": "nonpayable",
      "type": "function"
    }
  ],
  "bytecode": "0x60a060405260008060006101000a81548160ff0219169083600281111562000050577f4e487b7100000000000000000000000000000000000000000000000000000000600052602160045260246000fd5b02179055506001600060016101000a81548160ff0219169083151502179055503480156200007d57600080fd5b50604051620023ab380380620023ab8339818101604052810190620000a39190620000f8565b8073ffffffffffffffffffffffffffffffffffffffff1660808173ffffffffffffffffffffffffffffffffffffffff1660601b815250505062000172565b600081519050620000f28162000158565b92915050565b6000602082840312156200010b57600080fd5b60006200011b84828501620000e1565b91505092915050565b6000620001318262000138565b9050919050565b600073ffffffffffffffffffffffffffffffffffffffff82169050919050565b620001638162000124565b81146200016f57600080fd5b50565b60805160601c6121f7620001b460003960008181610259015281816102ea015281816103bd015281816105310152818161071a01526107ec01526121f76000f3fe60806040526004361061009c5760003560e01c806395b41bec1161006457806395b41bec14610174578063ae0120b41461018b578063c2b6400c146101c8578063d7bb99ba146101f1578063e1f42133146101fb578063e9a9c50c146102385761009c565b8063023f4147146100a15780633ccfd60b146100cc5780635325d806146100f75780636fdd78c3146101205780637f6497831461014b575b600080fd5b3480156100ad57600080fd5b506100b661024f565b6040516100c39190611c64565b60405180910390f35b3480156100d857600080fd5b506100e1610255565b6040516100ee9190611a6e565b60405180910390f35b34801561010357600080fd5b5061011e60048036038101906101199190611727565b6103bb565b005b34801561012c57600080fd5b5061013561051e565b6040516101429190611a89565b60405180910390f35b34801561015757600080fd5b50610172600480360381019061016d9190611750565b61052f565b005b34801561018057600080fd5b50610189610718565b005b34801561019757600080fd5b506101b260048036038101906101ad9190611727565b6107d2565b6040516101bf9190611c64565b60405180910390f35b3480156101d457600080fd5b506101ef60048036038101906101ea91906117be565b6107ea565b005b6101f9610c97565b005b34801561020757600080fd5b50610222600480360381019061021d9190611727565b610f18565b60405161022f9190611a6e565b60405180910390f35b34801561024457600080fd5b5061024d610f38565b005b60015481565b60007f000000000000000000000000000000000000000000000000000000000000000073ffffffffffffffffffffffffffffffffffffffff163373ffffffffffffffffffffffffffffffffffffffff16146102e5576040517f08c379a00000000000000000000000000000000000000000000000000000000081526004016102dc90611c24565b60405180910390fd5b6000807f000000000000000000000000000000000000000000000000000000000000000073ffffffffffffffffffffffffffffffffffffffff164760405161032c90611a30565b60006040518083038185875af1925050503d8060008114610369576040519150601f19603f3d011682016040523d82523d6000602084013e61036e565b606091505b5091509150816103b3576040517f08c379a00000000000000000000000000000000000000000000000000000000081526004016103aa90611ae4565b60405180910390fd5b819250505090565b7f000000000000000000000000000000000000000000000000000000000000000073ffffffffffffffffffffffffffffffffffffffff163373ffffffffffffffffffffffffffffffffffffffff1614610449576040517f08c379a000000000000000000000000000000000000000000000000000000000815260040161044090611c24565b60405180910390fd5b600073ffffffffffffffffffffffffffffffffffffffff16600460009054906101000a900473ffffffffffffffffffffffffffffffffffffffff1673ffffffffffffffffffffffffffffffffffffffff16146104da576040517f08c379a00000000000000000000000000000000000000000000000000000000081526004016104d190611b44565b60405180910390fd5b80600460006101000a81548173ffffffffffffffffffffffffffffffffffffffff021916908373ffffffffffffffffffffffffffffffffffffffff16021790555050565b60008054906101000a900460ff1681565b7f000000000000000000000000000000000000000000000000000000000000000073ffffffffffffffffffffffffffffffffffffffff163373ffffffffffffffffffffffffffffffffffffffff16146105bd576040517f08c379a00000000000000000000000000000000000000000000000000000000081526004016105b490611c24565b60405180910390fd5b60005b828290508110156107135760016003600085858581811061060a577f4e487b7100000000000000000000000000000000000000000000000000000000600052603260045260246000fd5b905060200201602081019061061f9190611727565b73ffffffffffffffffffffffffffffffffffffffff1673ffffffffffffffffffffffffffffffffffffffff16815260200190815260200160002060006101000a81548160ff0219169083151502179055508282828181106106a9577f4e487b7100000000000000000000000000000000000000000000000000000000600052603260045260246000fd5b90506020020160208101906106be9190611727565b73ffffffffffffffffffffffffffffffffffffffff167f9659de77bedae44137acf94b0b2a83c1a7e51fec986c5d6098bbde7e4f0d02e860405160405180910390a2808061070b90611def565b9150506105c0565b505050565b7f000000000000000000000000000000000000000000000000000000000000000073ffffffffffffffffffffffffffffffffffffffff163373ffffffffffffffffffffffffffffffffffffffff16146107a6576040517f08c379a000000000000000000000000000000000000000000000000000000000815260040161079d90611c24565b60405180910390fd5b600060019054906101000a900460ff1615600060016101000a81548160ff021916908315150217905550565b60026020528060005260406000206000915090505481565b7f000000000000000000000000000000000000000000000000000000000000000073ffffffffffffffffffffffffffffffffffffffff163373ffffffffffffffffffffffffffffffffffffffff1614610878576040517f08c379a000000000000000000000000000000000000000000000000000000000815260040161086f90611c24565b60405180910390fd5b6002808111156108b1577f4e487b7100000000000000000000000000000000000000000000000000000000600052602160045260246000fd5b60008054906101000a900460ff1660028111156108f7577f4e487b7100000000000000000000000000000000000000000000000000000000600052602160045260246000fd5b1415610938576040517f08c379a000000000000000000000000000000000000000000000000000000000815260040161092f90611b04565b60405180910390fd5b60006002811115610972577f4e487b7100000000000000000000000000000000000000000000000000000000600052602160045260246000fd5b60008054906101000a900460ff1660028111156109b8577f4e487b7100000000000000000000000000000000000000000000000000000000600052602160045260246000fd5b1415610ac657600160028111156109f8577f4e487b7100000000000000000000000000000000000000000000000000000000600052602160045260246000fd5b816002811115610a31577f4e487b7100000000000000000000000000000000000000000000000000000000600052602160045260246000fd5b14610a71576040517f08c379a0000000000000000000000000000000000000000000000000000000008152600401610a6890611c44565b60405180910390fd5b60016000806101000a81548160ff02191690836002811115610abc577f4e487b7100000000000000000000000000000000000000000000000000000000600052602160045260246000fd5b0217905550610c50565b60016002811115610b00577f4e487b7100000000000000000000000000000000000000000000000000000000600052602160045260246000fd5b60008054906101000a900460ff166002811115610b46577f4e487b7100000000000000000000000000000000000000000000000000000000600052602160045260246000fd5b1415610c4f57600280811115610b85577f4e487b7100000000000000000000000000000000000000000000000000000000600052602160045260246000fd5b816002811115610bbe577f4e487b7100000000000000000000000000000000000000000000000000000000600052602160045260246000fd5b14610bfe576040517f08c379a0000000000000000000000000000000000000000000000000000000008152600401610bf590611c44565b60405180910390fd5b60026000806101000a81548160ff02191690836002811115610c49577f4e487b7100000000000000000000000000000000000000000000000000000000600052602160045260246000fd5b02179055505b5b7f8ebfeb717d1d825f3a8fc9bfc3f381534bf92170a395707a9f3e08aef597842560008054906101000a900460ff16604051610c8c9190611a89565b60405180910390a150565b600060019054906101000a900460ff16610ce6576040517f08c379a0000000000000000000000000000000000000000000000000000000008152600401610cdd90611ac4565b60405180910390fd5b60006002811115610d20577f4e487b7100000000000000000000000000000000000000000000000000000000600052602160045260246000fd5b60008054906101000a900460ff166002811115610d66577f4e487b7100000000000000000000000000000000000000000000000000000000600052602160045260246000fd5b1415610d7957610d7461120f565b610e9c565b60016002811115610db3577f4e487b7100000000000000000000000000000000000000000000000000000000600052602160045260246000fd5b60008054906101000a900460ff166002811115610df9577f4e487b7100000000000000000000000000000000000000000000000000000000600052602160045260246000fd5b1415610e0c57610e076113ea565b610e9b565b600280811115610e45577f4e487b7100000000000000000000000000000000000000000000000000000000600052602160045260246000fd5b60008054906101000a900460ff166002811115610e8b577f4e487b7100000000000000000000000000000000000000000000000000000000600052602160045260246000fd5b1415610e9a57610e99611532565b5b5b5b3460016000828254610eae9190611cd2565b925050819055503373ffffffffffffffffffffffffffffffffffffffff167f42c963aa35f443deec479d572afc5e7537393e1c348bc0fa2c0a4b86ff85204a3460008054906101000a900460ff16600154604051610f0e93929190611c7f565b60405180910390a2565b60036020528060005260406000206000915054906101000a900460ff1681565b600280811115610f71577f4e487b7100000000000000000000000000000000000000000000000000000000600052602160045260246000fd5b60008054906101000a900460ff166002811115610fb7577f4e487b7100000000000000000000000000000000000000000000000000000000600052602160045260246000fd5b14610ff7576040517f08c379a0000000000000000000000000000000000000000000000000000000008152600401610fee90611ba4565b60405180910390fd5b6000600260003373ffffffffffffffffffffffffffffffffffffffff1673ffffffffffffffffffffffffffffffffffffffff1681526020019081526020016000205411611079576040517f08c379a000000000000000000000000000000000000000000000000000000000815260040161107090611c04565b60405180910390fd5b60006005600260003373ffffffffffffffffffffffffffffffffffffffff1673ffffffffffffffffffffffffffffffffffffffff168152602001908152602001600020546110c79190611d28565b90506000600260003373ffffffffffffffffffffffffffffffffffffffff1673ffffffffffffffffffffffffffffffffffffffff16815260200190815260200160002081905550600460009054906101000a900473ffffffffffffffffffffffffffffffffffffffff1673ffffffffffffffffffffffffffffffffffffffff1663a9059cbb33836040518363ffffffff1660e01b815260040161116b929190611a45565b602060405180830381600087803b15801561118557600080fd5b505af1158015611199573d6000803e3d6000fd5b505050506040513d601f19601f820116820180604052508101906111bd9190611795565b503373ffffffffffffffffffffffffffffffffffffffff167fc853d9a2751439bd161eba259f490c07a92e038e59bb1e00b02216522e17b0f7826040516112049190611c64565b60405180910390a250565b60011515600360003373ffffffffffffffffffffffffffffffffffffffff1673ffffffffffffffffffffffffffffffffffffffff16815260200190815260200160002060009054906101000a900460ff161515146112a2576040517f08c379a000000000000000000000000000000000000000000000000000000000815260040161129990611bc4565b60405180910390fd5b685150ae84a8cdf0000034600260003373ffffffffffffffffffffffffffffffffffffffff1673ffffffffffffffffffffffffffffffffffffffff168152602001908152602001600020546112f79190611cd2565b1115611338576040517f08c379a000000000000000000000000000000000000000000000000000000000815260040161132f90611be4565b60405180910390fd5b69032d26d12e980b600000346001546113519190611cd2565b1115611392576040517f08c379a000000000000000000000000000000000000000000000000000000000815260040161138990611b84565b60405180910390fd5b34600260003373ffffffffffffffffffffffffffffffffffffffff1673ffffffffffffffffffffffffffffffffffffffff16815260200190815260200160002060008282546113e19190611cd2565b92505081905550565b683635c9adc5dea0000034600260003373ffffffffffffffffffffffffffffffffffffffff1673ffffffffffffffffffffffffffffffffffffffff1681526020019081526020016000205461143f9190611cd2565b1115611480576040517f08c379a000000000000000000000000000000000000000000000000000000000815260040161147790611b24565b60405180910390fd5b69065a4da25d3016c00000346001546114999190611cd2565b11156114da576040517f08c379a00000000000000000000000000000000000000000000000000000000081526004016114d190611b64565b60405180910390fd5b34600260003373ffffffffffffffffffffffffffffffffffffffff1673ffffffffffffffffffffffffffffffffffffffff16815260200190815260200160002060008282546115299190611cd2565b92505081905550565b69065a4da25d3016c000003460015461154b9190611cd2565b111561158c576040517f08c379a000000000000000000000000000000000000000000000000000000000815260040161158390611aa4565b60405180910390fd5b600060053461159b9190611d28565b9050600460009054906101000a900473ffffffffffffffffffffffffffffffffffffffff1673ffffffffffffffffffffffffffffffffffffffff1663a9059cbb33836040518363ffffffff1660e01b81526004016115fa929190611a45565b602060405180830381600087803b15801561161457600080fd5b505af1158015611628573d6000803e3d6000fd5b505050506040513d601f19601f8201168201806040525081019061164c9190611795565b503373ffffffffffffffffffffffffffffffffffffffff167fc853d9a2751439bd161eba259f490c07a92e038e59bb1e00b02216522e17b0f7826040516116939190611c64565b60405180910390a250565b6000813590506116ad81612183565b92915050565b60008083601f8401126116c557600080fd5b8235905067ffffffffffffffff8111156116de57600080fd5b6020830191508360208202830111156116f657600080fd5b9250929050565b60008151905061170c8161219a565b92915050565b600081359050611721816121b1565b92915050565b60006020828403121561173957600080fd5b60006117478482850161169e565b91505092915050565b6000806020838503121561176357600080fd5b600083013567ffffffffffffffff81111561177d57600080fd5b611789858286016116b3565b92509250509250929050565b6000602082840312156117a757600080fd5b60006117b5848285016116fd565b91505092915050565b6000602082840312156117d057600080fd5b60006117de84828501611712565b91505092915050565b6117f081611d82565b82525050565b6117ff81611d94565b82525050565b61180e81611ddd565b82525050565b6000611821603a83611cc1565b915061182c82611e96565b604082019050919050565b6000611844601483611cc1565b915061184f82611ee5565b602082019050919050565b6000611867601683611cc1565b915061187282611f0e565b602082019050919050565b600061188a601283611cc1565b915061189582611f37565b602082019050919050565b60006118ad603683611cc1565b91506118b882611f60565b604082019050919050565b60006118d0601e83611cc1565b91506118db82611faf565b602082019050919050565b60006118f3603d83611cc1565b91506118fe82611fd8565b604082019050919050565b6000611916601683611cc1565b915061192182612027565b602082019050919050565b6000611939601983611cc1565b915061194482612050565b602082019050919050565b600061195c601883611cc1565b915061196782612079565b602082019050919050565b600061197f602683611cc1565b915061198a826120a2565b604082019050919050565b60006119a2601383611cc1565b91506119ad826120f1565b602082019050919050565b60006119c5601383611cc1565b91506119d08261211a565b602082019050919050565b60006119e8600083611cb6565b91506119f382612143565b600082019050919050565b6000611a0b601683611cc1565b9150611a1682612146565b602082019050919050565b611a2a81611dd3565b82525050565b6000611a3b826119db565b9150819050919050565b6000604082019050611a5a60008301856117e7565b611a676020830184611a21565b9392505050565b6000602082019050611a8360008301846117f6565b92915050565b6000602082019050611a9e6000830184611805565b92915050565b60006020820190508181036000830152611abd81611814565b9050919050565b60006020820190508181036000830152611add81611837565b9050919050565b60006020820190508181036000830152611afd8161185a565b9050919050565b60006020820190508181036000830152611b1d8161187d565b9050919050565b60006020820190508181036000830152611b3d816118a0565b9050919050565b60006020820190508181036000830152611b5d816118c3565b9050919050565b60006020820190508181036000830152611b7d816118e6565b9050919050565b60006020820190508181036000830152611b9d81611909565b9050919050565b60006020820190508181036000830152611bbd8161192c565b9050919050565b60006020820190508181036000830152611bdd8161194f565b9050919050565b60006020820190508181036000830152611bfd81611972565b9050919050565b60006020820190508181036000830152611c1d81611995565b9050919050565b60006020820190508181036000830152611c3d816119b8565b9050919050565b60006020820190508181036000830152611c5d816119fe565b9050919050565b6000602082019050611c796000830184611a21565b92915050565b6000606082019050611c946000830186611a21565b611ca16020830185611805565b611cae6040830184611a21565b949350505050565b600081905092915050565b600082825260208201905092915050565b6000611cdd82611dd3565b9150611ce883611dd3565b9250827fffffffffffffffffffffffffffffffffffffffffffffffffffffffffffffffff03821115611d1d57611d1c611e38565b5b828201905092915050565b6000611d3382611dd3565b9150611d3e83611dd3565b9250817fffffffffffffffffffffffffffffffffffffffffffffffffffffffffffffffff0483118215151615611d7757611d76611e38565b5b828202905092915050565b6000611d8d82611db3565b9050919050565b60008115159050919050565b6000819050611dae8261216f565b919050565b600073ffffffffffffffffffffffffffffffffffffffff82169050919050565b6000819050919050565b6000611de882611da0565b9050919050565b6000611dfa82611dd3565b91507fffffffffffffffffffffffffffffffffffffffffffffffffffffffffffffffff821415611e2d57611e2c611e38565b5b600182019050919050565b7f4e487b7100000000000000000000000000000000000000000000000000000000600052601160045260246000fd5b7f4e487b7100000000000000000000000000000000000000000000000000000000600052602160045260246000fd5b7f546f74616c204f70656e20506861736520436f6e747269627574696f6e73206d60008201527f757374206265206c657373207468616e2033306b206574686572000000000000602082015250565b7f436f6e747269627574696f6e7320506175736564000000000000000000000000600082015250565b7f556e7375636365737366756c2077697468647261776c00000000000000000000600082015250565b7f416c7265616479205068617365204f70656e0000000000000000000000000000600082015250565b7f47656e6572616c20506861736520436f6e747269627574696f6e73206d75737460008201527f206265206c657373207468616e20316b20657468657200000000000000000000602082015250565b7f5370616365436f696e20436f6e747261637420416c7265616479205365740000600082015250565b7f546f74616c2047656e6572616c20506861736520436f6e747269627574696f6e60008201527f73206d757374206265206c657373207468616e2033306b206574686572000000602082015250565b7f536565642046756e642043617020457863656564656400000000000000000000600082015250565b7f49434f206e6f742079657420696e206f70656e20706861736500000000000000600082015250565b7f496e766573746f72206e6f742077686974656c69737465640000000000000000600082015250565b7f536565642066756e64206d757374206265206c657373207468616e20312e356b60008201527f2065746865720000000000000000000000000000000000000000000000000000602082015250565b7f4e6f20746f6b656e7320746f2072656465656d00000000000000000000000000600082015250565b7f5265717569726573204f6e6c79204f776e657200000000000000000000000000600082015250565b50565b7f496e636f7272657420506861736520416476616e636500000000000000000000600082015250565b600381106121805761217f611e67565b5b50565b61218c81611d82565b811461219757600080fd5b50565b6121a381611d94565b81146121ae57600080fd5b50565b600381106121be57600080fd5b5056fea26469706673582212207865a28b2231140cf1219ad631908089449b54c39f29ac7ab836f82a892a7d9064736f6c63430008040033",
  "linkReferences": {},
  "deployedLinkReferences": {}
}