{
  "_format": "hh-sol-artifact-1",
  "contractName": "SPCE_ETH_LP",
  "sourceName": "contracts/SPCE_ETH_LP.sol",
  "abi": [
    {
      "inputs": [
        {
          "internalType": "address",
          "name": "spaceCoinAddress",
          "type": "address"
        }
      ],
      "stateMutability": "nonpayable",
      "type": "constructor"
    },
    {
      "anonymous": false,
      "inputs": [
        {
          "indexed": false,
          "internalType": "uint256",
          "name": "optimalEth",
          "type": "uint256"
        },
        {
          "indexed": false,
          "internalType": "uint256",
          "name": "optimalSpce",
          "type": "uint256"
        },
        {
          "indexed": false,
          "internalType": "uint256",
          "name": "tokensToMint",
          "type": "uint256"
        },
        {
          "indexed": true,
          "internalType": "address",
          "name": "to",
          "type": "address"
        }
      ],
      "name": "AddLiquidityEvent",
      "type": "event"
    },
    {
      "anonymous": false,
      "inputs": [
        {
          "indexed": true,
          "internalType": "address",
          "name": "owner",
          "type": "address"
        },
        {
          "indexed": true,
          "internalType": "address",
          "name": "spender",
          "type": "address"
        },
        {
          "indexed": false,
          "internalType": "uint256",
          "name": "value",
          "type": "uint256"
        }
      ],
      "name": "Approval",
      "type": "event"
    },
    {
      "anonymous": false,
      "inputs": [
        {
          "indexed": false,
          "internalType": "uint256",
          "name": "ethToRemove",
          "type": "uint256"
        },
        {
          "indexed": false,
          "internalType": "uint256",
          "name": "spceToRemove",
          "type": "uint256"
        },
        {
          "indexed": false,
          "internalType": "uint256",
          "name": "tokensBurned",
          "type": "uint256"
        },
        {
          "indexed": true,
          "internalType": "address",
          "name": "to",
          "type": "address"
        }
      ],
      "name": "RemoveLiquidityEvent",
      "type": "event"
    },
    {
      "anonymous": false,
      "inputs": [
        {
          "indexed": false,
          "internalType": "uint256",
          "name": "ethSwapped",
          "type": "uint256"
        },
        {
          "indexed": false,
          "internalType": "uint256",
          "name": "spceSwapped",
          "type": "uint256"
        },
        {
          "indexed": false,
          "internalType": "bool",
          "name": "isEthToSpce",
          "type": "bool"
        },
        {
          "indexed": true,
          "internalType": "address",
          "name": "to",
          "type": "address"
        }
      ],
      "name": "SwapEvent",
      "type": "event"
    },
    {
      "anonymous": false,
      "inputs": [
        {
          "indexed": true,
          "internalType": "address",
          "name": "from",
          "type": "address"
        },
        {
          "indexed": true,
          "internalType": "address",
          "name": "to",
          "type": "address"
        },
        {
          "indexed": false,
          "internalType": "uint256",
          "name": "value",
          "type": "uint256"
        }
      ],
      "name": "Transfer",
      "type": "event"
    },
    {
      "inputs": [],
      "name": "DECIMAL",
      "outputs": [
        {
          "internalType": "uint256",
          "name": "",
          "type": "uint256"
        }
      ],
      "stateMutability": "view",
      "type": "function"
    },
    {
      "inputs": [
        {
          "internalType": "uint256",
          "name": "ethDesired",
          "type": "uint256"
        },
        {
          "internalType": "uint256",
          "name": "spceDesired",
          "type": "uint256"
        },
        {
          "internalType": "uint256",
          "name": "ethMinimum",
          "type": "uint256"
        },
        {
          "internalType": "uint256",
          "name": "spceMinimum",
          "type": "uint256"
        }
      ],
      "name": "addLiquidity",
      "outputs": [
        {
          "internalType": "uint256",
          "name": "optimalEth",
          "type": "uint256"
        },
        {
          "internalType": "uint256",
          "name": "optimalSpce",
          "type": "uint256"
        },
        {
          "internalType": "uint256",
          "name": "tokensToMint",
          "type": "uint256"
        }
      ],
      "stateMutability": "payable",
      "type": "function"
    },
    {
      "inputs": [
        {
          "internalType": "address",
          "name": "owner",
          "type": "address"
        },
        {
          "internalType": "address",
          "name": "spender",
          "type": "address"
        }
      ],
      "name": "allowance",
      "outputs": [
        {
          "internalType": "uint256",
          "name": "",
          "type": "uint256"
        }
      ],
      "stateMutability": "view",
      "type": "function"
    },
    {
      "inputs": [
        {
          "internalType": "address",
          "name": "spender",
          "type": "address"
        },
        {
          "internalType": "uint256",
          "name": "amount",
          "type": "uint256"
        }
      ],
      "name": "approve",
      "outputs": [
        {
          "internalType": "bool",
          "name": "",
          "type": "bool"
        }
      ],
      "stateMutability": "nonpayable",
      "type": "function"
    },
    {
      "inputs": [
        {
          "internalType": "address",
          "name": "account",
          "type": "address"
        }
      ],
      "name": "balanceOf",
      "outputs": [
        {
          "internalType": "uint256",
          "name": "",
          "type": "uint256"
        }
      ],
      "stateMutability": "view",
      "type": "function"
    },
    {
      "inputs": [],
      "name": "decimals",
      "outputs": [
        {
          "internalType": "uint8",
          "name": "",
          "type": "uint8"
        }
      ],
      "stateMutability": "view",
      "type": "function"
    },
    {
      "inputs": [
        {
          "internalType": "address",
          "name": "spender",
          "type": "address"
        },
        {
          "internalType": "uint256",
          "name": "subtractedValue",
          "type": "uint256"
        }
      ],
      "name": "decreaseAllowance",
      "outputs": [
        {
          "internalType": "bool",
          "name": "",
          "type": "bool"
        }
      ],
      "stateMutability": "nonpayable",
      "type": "function"
    },
    {
      "inputs": [],
      "name": "ethReserve",
      "outputs": [
        {
          "internalType": "uint256",
          "name": "",
          "type": "uint256"
        }
      ],
      "stateMutability": "view",
      "type": "function"
    },
    {
      "inputs": [],
      "name": "getReserves",
      "outputs": [
        {
          "internalType": "uint256",
          "name": "_ethReserve",
          "type": "uint256"
        },
        {
          "internalType": "uint256",
          "name": "_spceReserve",
          "type": "uint256"
        }
      ],
      "stateMutability": "view",
      "type": "function"
    },
    {
      "inputs": [
        {
          "internalType": "address",
          "name": "spender",
          "type": "address"
        },
        {
          "internalType": "uint256",
          "name": "addedValue",
          "type": "uint256"
        }
      ],
      "name": "increaseAllowance",
      "outputs": [
        {
          "internalType": "bool",
          "name": "",
          "type": "bool"
        }
      ],
      "stateMutability": "nonpayable",
      "type": "function"
    },
    {
      "inputs": [],
      "name": "name",
      "outputs": [
        {
          "internalType": "string",
          "name": "",
          "type": "string"
        }
      ],
      "stateMutability": "view",
      "type": "function"
    },
    {
      "inputs": [
        {
          "internalType": "uint256",
          "name": "lpTokens",
          "type": "uint256"
        },
        {
          "internalType": "uint256",
          "name": "minEth",
          "type": "uint256"
        },
        {
          "internalType": "uint256",
          "name": "minSpce",
          "type": "uint256"
        }
      ],
      "name": "removeLiquidity",
      "outputs": [],
      "stateMutability": "nonpayable",
      "type": "function"
    },
    {
      "inputs": [],
      "name": "spaceCoin",
      "outputs": [
        {
          "internalType": "contract SpaceCoin",
          "name": "",
          "type": "address"
        }
      ],
      "stateMutability": "view",
      "type": "function"
    },
    {
      "inputs": [],
      "name": "spceReserve",
      "outputs": [
        {
          "internalType": "uint256",
          "name": "",
          "type": "uint256"
        }
      ],
      "stateMutability": "view",
      "type": "function"
    },
    {
      "inputs": [
        {
          "internalType": "uint256",
          "name": "spceToSwap",
          "type": "uint256"
        },
        {
          "internalType": "uint256",
          "name": "minReturn",
          "type": "uint256"
        }
      ],
      "name": "swap",
      "outputs": [],
      "stateMutability": "payable",
      "type": "function"
    },
    {
      "inputs": [],
      "name": "swapFeePercentage",
      "outputs": [
        {
          "internalType": "uint256",
          "name": "",
          "type": "uint256"
        }
      ],
      "stateMutability": "view",
      "type": "function"
    },
    {
      "inputs": [],
      "name": "symbol",
      "outputs": [
        {
          "internalType": "string",
          "name": "",
          "type": "string"
        }
      ],
      "stateMutability": "view",
      "type": "function"
    },
    {
      "inputs": [],
      "name": "totalSupply",
      "outputs": [
        {
          "internalType": "uint256",
          "name": "",
          "type": "uint256"
        }
      ],
      "stateMutability": "view",
      "type": "function"
    },
    {
      "inputs": [
        {
          "internalType": "address",
          "name": "to",
          "type": "address"
        },
        {
          "internalType": "uint256",
          "name": "amount",
          "type": "uint256"
        }
      ],
      "name": "transfer",
      "outputs": [
        {
          "internalType": "bool",
          "name": "",
          "type": "bool"
        }
      ],
      "stateMutability": "nonpayable",
      "type": "function"
    },
    {
      "inputs": [
        {
          "internalType": "address",
          "name": "from",
          "type": "address"
        },
        {
          "internalType": "address",
          "name": "to",
          "type": "address"
        },
        {
          "internalType": "uint256",
          "name": "amount",
          "type": "uint256"
        }
      ],
      "name": "transferFrom",
      "outputs": [
        {
          "internalType": "bool",
          "name": "",
          "type": "bool"
        }
      ],
      "stateMutability": "nonpayable",
      "type": "function"
    }
  ],
  "bytecode": "0x60a06040523480156200001157600080fd5b5060405162003b8938038062003b898339818101604052810190620000379190620001dc565b6040518060400160405280600b81526020017f535043455f4554485f4c500000000000000000000000000000000000000000008152506040518060400160405280600881526020017f535043455f4554480000000000000000000000000000000000000000000000008152508160039080519060200190620000bb92919062000115565b508060049080519060200190620000d492919062000115565b5050508073ffffffffffffffffffffffffffffffffffffffff1660808173ffffffffffffffffffffffffffffffffffffffff1660601b8152505050620002bb565b82805462000123906200023c565b90600052602060002090601f01602090048101928262000147576000855562000193565b82601f106200016257805160ff191683800117855562000193565b8280016001018555821562000193579182015b828111156200019257825182559160200191906001019062000175565b5b509050620001a29190620001a6565b5090565b5b80821115620001c1576000816000905550600101620001a7565b5090565b600081519050620001d681620002a1565b92915050565b600060208284031215620001ef57600080fd5b6000620001ff84828501620001c5565b91505092915050565b600062000215826200021c565b9050919050565b600073ffffffffffffffffffffffffffffffffffffffff82169050919050565b600060028204905060018216806200025557607f821691505b602082108114156200026c576200026b62000272565b5b50919050565b7f4e487b7100000000000000000000000000000000000000000000000000000000600052602260045260246000fd5b620002ac8162000208565b8114620002b857600080fd5b50565b60805160601c613893620002f66000396000818161073901528181610b2d01528181610e750152818161108d015261132801526138936000f3fe60806040526004361061011f5760003560e01c8063857620e1116100a0578063aebf3e4111610064578063aebf3e4114610414578063d62ccb3f14610446578063d96073cf14610471578063dd62ed3e1461048d578063e48575d4146104ca5761011f565b8063857620e11461031b57806395d89b4114610344578063a457c2d71461036f578063a4ac0d49146103ac578063a9059cbb146103d75761011f565b80632cf61dbb116100e75780632cf61dbb14610220578063313ce5671461024b57806339509351146102765780636ab55fd9146102b357806370a08231146102de5761011f565b806306fdde03146101245780630902f1ac1461014f578063095ea7b31461017b57806318160ddd146101b857806323b872dd146101e3575b600080fd5b34801561013057600080fd5b506101396104f5565b60405161014691906127e1565b60405180910390f35b34801561015b57600080fd5b50610164610587565b604051610172929190612bfe565b60405180910390f35b34801561018757600080fd5b506101a2600480360381019061019d91906120ff565b610598565b6040516101af91906127ab565b60405180910390f35b3480156101c457600080fd5b506101cd6105bb565b6040516101da9190612be3565b60405180910390f35b3480156101ef57600080fd5b5061020a600480360381019061020591906120b0565b6105c5565b60405161021791906127ab565b60405180910390f35b34801561022c57600080fd5b506102356105f4565b6040516102429190612be3565b60405180910390f35b34801561025757600080fd5b506102606105fa565b60405161026d9190612c95565b60405180910390f35b34801561028257600080fd5b5061029d600480360381019061029891906120ff565b610603565b6040516102aa91906127ab565b60405180910390f35b3480156102bf57600080fd5b506102c861063a565b6040516102d59190612be3565b60405180910390f35b3480156102ea57600080fd5b506103056004803603810190610300919061204b565b610646565b6040516103129190612be3565b60405180910390f35b34801561032757600080fd5b50610342600480360381019061033d91906121a0565b61068e565b005b34801561035057600080fd5b50610359610930565b60405161036691906127e1565b60405180910390f35b34801561037b57600080fd5b50610396600480360381019061039191906120ff565b6109c2565b6040516103a391906127ab565b60405180910390f35b3480156103b857600080fd5b506103c1610a39565b6040516103ce9190612be3565b60405180910390f35b3480156103e357600080fd5b506103fe60048036038101906103f991906120ff565b610a3e565b60405161040b91906127ab565b60405180910390f35b61042e600480360381019061042991906121ef565b610a61565b60405161043d93929190612c5e565b60405180910390f35b34801561045257600080fd5b5061045b610d0c565b6040516104689190612be3565b60405180910390f35b61048b60048036038101906104869190612164565b610d12565b005b34801561049957600080fd5b506104b460048036038101906104af9190612074565b61129f565b6040516104c19190612be3565b60405180910390f35b3480156104d657600080fd5b506104df611326565b6040516104ec91906127c6565b60405180910390f35b60606003805461050490612e98565b80601f016020809104026020016040519081016040528092919081815260200182805461053090612e98565b801561057d5780601f106105525761010080835404028352916020019161057d565b820191906000526020600020905b81548152906001019060200180831161056057829003601f168201915b5050505050905090565b600080600654600554915091509091565b6000806105a361134a565b90506105b0818585611352565b600191505092915050565b6000600254905090565b6000806105d061134a565b90506105dd85828561151d565b6105e88585856115a9565b60019150509392505050565b60055481565b60006012905090565b60008061060e61134a565b905061062f818585610620858961129f565b61062a9190612cd7565b611352565b600191505092915050565b670de0b6b3a764000081565b60008060008373ffffffffffffffffffffffffffffffffffffffff1673ffffffffffffffffffffffffffffffffffffffff168152602001908152602001600020549050919050565b8261069833610646565b10156106d9576040517f08c379a00000000000000000000000000000000000000000000000000000000081526004016106d090612863565b60405180910390fd5b6000806106f56106e76105bb565b86868660065460055461182a565b91509150816006600082825461070b9190612db8565b9250508190555080600560008282546107249190612db8565b9250508190555061073533866119b7565b60007f000000000000000000000000000000000000000000000000000000000000000073ffffffffffffffffffffffffffffffffffffffff1663a9059cbb33846040518363ffffffff1660e01b8152600401610792929190612782565b602060405180830381600087803b1580156107ac57600080fd5b505af11580156107c0573d6000803e3d6000fd5b505050506040513d601f19601f820116820180604052508101906107e4919061213b565b905080610826576040517f08c379a000000000000000000000000000000000000000000000000000000000815260040161081d90612a63565b60405180910390fd5b6000803373ffffffffffffffffffffffffffffffffffffffff168560405161084d90612736565b60006040518083038185875af1925050503d806000811461088a576040519150601f19603f3d011682016040523d82523d6000602084013e61088f565b606091505b5091509150816108d4576040517f08c379a00000000000000000000000000000000000000000000000000000000081526004016108cb90612a63565b60405180910390fd5b3373ffffffffffffffffffffffffffffffffffffffff167ffff830ae2928f906e5d8e98ddba19cbbc99b3bf176b314f816d963337e5d24ad86868b60405161091e93929190612c5e565b60405180910390a25050505050505050565b60606004805461093f90612e98565b80601f016020809104026020016040519081016040528092919081815260200182805461096b90612e98565b80156109b85780601f1061098d576101008083540402835291602001916109b8565b820191906000526020600020905b81548152906001019060200180831161099b57829003601f168201915b5050505050905090565b6000806109cd61134a565b905060006109db828661129f565b905083811015610a20576040517f08c379a0000000000000000000000000000000000000000000000000000000008152600401610a1790612b83565b60405180910390fd5b610a2d8286868403611352565b60019250505092915050565b600181565b600080610a4961134a565b9050610a568185856115a9565b600191505092915050565b6000806000610a6e610587565b6006600060056000849190505583919050555050610a9487878787600654600554611b8e565b809350819450505082341015610adf576040517f08c379a0000000000000000000000000000000000000000000000000000000008152600401610ad6906128c3565b60405180910390fd5b610af78383610aec6105bb565b600654600554611cbc565b90508260066000828254610b0b9190612cd7565b925050819055508160056000828254610b249190612cd7565b925050819055507f000000000000000000000000000000000000000000000000000000000000000073ffffffffffffffffffffffffffffffffffffffff166323b872dd3330856040518463ffffffff1660e01b8152600401610b889392919061274b565b602060405180830381600087803b158015610ba257600080fd5b505af1158015610bb6573d6000803e3d6000fd5b505050506040513d601f19601f82011682018060405250810190610bda919061213b565b50610be53382611d5c565b60008334610bf39190612db8565b90506000811115610caf576000803373ffffffffffffffffffffffffffffffffffffffff1683604051610c2590612736565b60006040518083038185875af1925050503d8060008114610c62576040519150601f19603f3d011682016040523d82523d6000602084013e610c67565b606091505b509150915081610cac576040517f08c379a0000000000000000000000000000000000000000000000000000000008152600401610ca390612a03565b60405180910390fd5b50505b3373ffffffffffffffffffffffffffffffffffffffff167f20aa111fe96f650e9ef3c7bfc211db0c4f7951ef80f52a8de0422a141f1bbd11858585604051610cf993929190612c5e565b60405180910390a2509450945094915050565b60065481565b6000821180610d215750600034115b610d60576040517f08c379a0000000000000000000000000000000000000000000000000000000008152600401610d5790612b43565b60405180910390fd5b610d68610587565b60066000600560008491905055839190505550506000341115610f925760008214610dc8576040517f08c379a0000000000000000000000000000000000000000000000000000000008152600401610dbf90612aa3565b60405180910390fd5b600080610dda34600654600554611ebc565b915091508060068190555060006064600184610df69190612d5e565b610e009190612d2d565b9050838184610e0f9190612db8565b11610e4f576040517f08c379a0000000000000000000000000000000000000000000000000000000008152600401610e46906128e3565b60405180910390fd5b8083610e5b9190612db8565b60056000828254610e6c9190612db8565b925050819055507f000000000000000000000000000000000000000000000000000000000000000073ffffffffffffffffffffffffffffffffffffffff1663a9059cbb338386610ebc9190612db8565b6040518363ffffffff1660e01b8152600401610ed9929190612782565b602060405180830381600087803b158015610ef357600080fd5b505af1158015610f07573d6000803e3d6000fd5b505050506040513d601f19601f82011682018060405250810190610f2b919061213b565b503373ffffffffffffffffffffffffffffffffffffffff167fcc194b8eb2281b5beec81f20846374b2649a6228dcd679d5689a0b3c1d36b7a9348386610f719190612db8565b6001604051610f8293929190612c27565b60405180910390a250505061129b565b600082111561129a5760003414610fde576040517f08c379a0000000000000000000000000000000000000000000000000000000008152600401610fd5906129a3565b60405180910390fd5b600080610ff084600654600554611ef9565b91509150806005819055506000606460018461100c9190612d5e565b6110169190612d2d565b90508381846110259190612db8565b11611065576040517f08c379a000000000000000000000000000000000000000000000000000000000815260040161105c90612903565b60405180910390fd5b80836110719190612db8565b600660008282546110829190612db8565b9250508190555060007f000000000000000000000000000000000000000000000000000000000000000073ffffffffffffffffffffffffffffffffffffffff166323b872dd3330896040518463ffffffff1660e01b81526004016110e89392919061274b565b602060405180830381600087803b15801561110257600080fd5b505af1158015611116573d6000803e3d6000fd5b505050506040513d601f19601f8201168201806040525081019061113a919061213b565b90508061117c576040517f08c379a000000000000000000000000000000000000000000000000000000000815260040161117390612803565b60405180910390fd5b6000803373ffffffffffffffffffffffffffffffffffffffff1684876111a29190612db8565b6040516111ae90612736565b60006040518083038185875af1925050503d80600081146111eb576040519150601f19603f3d011682016040523d82523d6000602084013e6111f0565b606091505b509150915081611235576040517f08c379a000000000000000000000000000000000000000000000000000000000815260040161122c906128a3565b60405180910390fd5b3373ffffffffffffffffffffffffffffffffffffffff167fcc194b8eb2281b5beec81f20846374b2649a6228dcd679d5689a0b3c1d36b7a985886112799190612db8565b8a600060405161128b93929190612c27565b60405180910390a25050505050505b5b5050565b6000600160008473ffffffffffffffffffffffffffffffffffffffff1673ffffffffffffffffffffffffffffffffffffffff16815260200190815260200160002060008373ffffffffffffffffffffffffffffffffffffffff1673ffffffffffffffffffffffffffffffffffffffff16815260200190815260200160002054905092915050565b7f000000000000000000000000000000000000000000000000000000000000000081565b600033905090565b600073ffffffffffffffffffffffffffffffffffffffff168373ffffffffffffffffffffffffffffffffffffffff1614156113c2576040517f08c379a00000000000000000000000000000000000000000000000000000000081526004016113b990612ac3565b60405180910390fd5b600073ffffffffffffffffffffffffffffffffffffffff168273ffffffffffffffffffffffffffffffffffffffff161415611432576040517f08c379a000000000000000000000000000000000000000000000000000000000815260040161142990612923565b60405180910390fd5b80600160008573ffffffffffffffffffffffffffffffffffffffff1673ffffffffffffffffffffffffffffffffffffffff16815260200190815260200160002060008473ffffffffffffffffffffffffffffffffffffffff1673ffffffffffffffffffffffffffffffffffffffff168152602001908152602001600020819055508173ffffffffffffffffffffffffffffffffffffffff168373ffffffffffffffffffffffffffffffffffffffff167f8c5be1e5ebec7d5bd14f71427d1e84f3dd0314c0f7b2291e5b200ac8c7c3b925836040516115109190612be3565b60405180910390a3505050565b6000611529848461129f565b90507fffffffffffffffffffffffffffffffffffffffffffffffffffffffffffffffff81146115a35781811015611595576040517f08c379a000000000000000000000000000000000000000000000000000000000815260040161158c90612983565b60405180910390fd5b6115a28484848403611352565b5b50505050565b600073ffffffffffffffffffffffffffffffffffffffff168373ffffffffffffffffffffffffffffffffffffffff161415611619576040517f08c379a000000000000000000000000000000000000000000000000000000000815260040161161090612a43565b60405180910390fd5b600073ffffffffffffffffffffffffffffffffffffffff168273ffffffffffffffffffffffffffffffffffffffff161415611689576040517f08c379a000000000000000000000000000000000000000000000000000000000815260040161168090612823565b60405180910390fd5b611694838383611f36565b60008060008573ffffffffffffffffffffffffffffffffffffffff1673ffffffffffffffffffffffffffffffffffffffff1681526020019081526020016000205490508181101561171a576040517f08c379a0000000000000000000000000000000000000000000000000000000008152600401611711906129c3565b60405180910390fd5b8181036000808673ffffffffffffffffffffffffffffffffffffffff1673ffffffffffffffffffffffffffffffffffffffff16815260200190815260200160002081905550816000808573ffffffffffffffffffffffffffffffffffffffff1673ffffffffffffffffffffffffffffffffffffffff16815260200190815260200160002060008282546117ad9190612cd7565b925050819055508273ffffffffffffffffffffffffffffffffffffffff168473ffffffffffffffffffffffffffffffffffffffff167fddf252ad1be2c89b69c2b068fc378daa952ba7f163c4a11628f55a4df523b3ef846040516118119190612be3565b60405180910390a3611824848484611f3b565b50505050565b60008060008711611870576040517f08c379a000000000000000000000000000000000000000000000000000000000815260040161186790612b03565b60405180910390fd5b87848861187d9190612d5e565b6118879190612d2d565b91508783886118969190612d5e565b6118a09190612d2d565b9050600082116118e5576040517f08c379a00000000000000000000000000000000000000000000000000000000081526004016118dc90612a83565b60405180910390fd5b60008111611928576040517f08c379a000000000000000000000000000000000000000000000000000000000815260040161191f90612bc3565b60405180910390fd5b85821161196a576040517f08c379a000000000000000000000000000000000000000000000000000000000815260040161196190612843565b60405180910390fd5b8481116119ac576040517f08c379a00000000000000000000000000000000000000000000000000000000081526004016119a390612b23565b60405180910390fd5b965096945050505050565b600073ffffffffffffffffffffffffffffffffffffffff168273ffffffffffffffffffffffffffffffffffffffff161415611a27576040517f08c379a0000000000000000000000000000000000000000000000000000000008152600401611a1e90612a23565b60405180910390fd5b611a3382600083611f36565b60008060008473ffffffffffffffffffffffffffffffffffffffff1673ffffffffffffffffffffffffffffffffffffffff16815260200190815260200160002054905081811015611ab9576040517f08c379a0000000000000000000000000000000000000000000000000000000008152600401611ab090612883565b60405180910390fd5b8181036000808573ffffffffffffffffffffffffffffffffffffffff1673ffffffffffffffffffffffffffffffffffffffff168152602001908152602001600020819055508160026000828254611b109190612db8565b92505081905550600073ffffffffffffffffffffffffffffffffffffffff168373ffffffffffffffffffffffffffffffffffffffff167fddf252ad1be2c89b69c2b068fc378daa952ba7f163c4a11628f55a4df523b3ef84604051611b759190612be3565b60405180910390a3611b8983600084611f3b565b505050565b600080600084148015611ba15750600083145b15611bb55787878092508193505050611cb0565b6000611bc2898686611f40565b9050878111611c1a5785811015611c0e576040517f08c379a0000000000000000000000000000000000000000000000000000000008152600401611c05906129e3565b60405180910390fd5b88819250925050611cb1565b6000611c27898688611f40565b905089811115611c60577f4e487b7100000000000000000000000000000000000000000000000000000000600052600160045260246000fd5b87811015611ca3576040517f08c379a0000000000000000000000000000000000000000000000000000000008152600401611c9a90612b63565b60405180910390fd5b8089935093505050611cb1565b5b965096945050505050565b600080841415611cd757611cd08686611ff3565b9050611d53565b611d0d838588611ce79190612d5e565b611cf19190612d2d565b838688611cfe9190612d5e565b611d089190612d2d565b611ff3565b905060008111611d52576040517f08c379a0000000000000000000000000000000000000000000000000000000008152600401611d4990612ae3565b60405180910390fd5b5b95945050505050565b600073ffffffffffffffffffffffffffffffffffffffff168273ffffffffffffffffffffffffffffffffffffffff161415611dcc576040517f08c379a0000000000000000000000000000000000000000000000000000000008152600401611dc390612ba3565b60405180910390fd5b611dd860008383611f36565b8060026000828254611dea9190612cd7565b92505081905550806000808473ffffffffffffffffffffffffffffffffffffffff1673ffffffffffffffffffffffffffffffffffffffff1681526020019081526020016000206000828254611e3f9190612cd7565b925050819055508173ffffffffffffffffffffffffffffffffffffffff16600073ffffffffffffffffffffffffffffffffffffffff167fddf252ad1be2c89b69c2b068fc378daa952ba7f163c4a11628f55a4df523b3ef83604051611ea49190612be3565b60405180910390a3611eb860008383611f3b565b5050565b6000808484611ecb9190612cd7565b9050808385611eda9190612d5e565b611ee49190612d2d565b83611eef9190612db8565b9150935093915050565b6000808483611f089190612cd7565b9050808385611f179190612d5e565b611f219190612d2d565b84611f2c9190612db8565b9150935093915050565b505050565b505050565b6000808411611f84576040517f08c379a0000000000000000000000000000000000000000000000000000000008152600401611f7b90612963565b60405180910390fd5b600083118015611f945750600082115b611fd3576040517f08c379a0000000000000000000000000000000000000000000000000000000008152600401611fca90612943565b60405180910390fd5b828285611fe09190612d5e565b611fea9190612d2d565b90509392505050565b60008183106120025781612004565b825b905092915050565b60008135905061201b81613818565b92915050565b6000815190506120308161382f565b92915050565b60008135905061204581613846565b92915050565b60006020828403121561205d57600080fd5b600061206b8482850161200c565b91505092915050565b6000806040838503121561208757600080fd5b60006120958582860161200c565b92505060206120a68582860161200c565b9150509250929050565b6000806000606084860312156120c557600080fd5b60006120d38682870161200c565b93505060206120e48682870161200c565b92505060406120f586828701612036565b9150509250925092565b6000806040838503121561211257600080fd5b60006121208582860161200c565b925050602061213185828601612036565b9150509250929050565b60006020828403121561214d57600080fd5b600061215b84828501612021565b91505092915050565b6000806040838503121561217757600080fd5b600061218585828601612036565b925050602061219685828601612036565b9150509250929050565b6000806000606084860312156121b557600080fd5b60006121c386828701612036565b93505060206121d486828701612036565b92505060406121e586828701612036565b9150509250925092565b6000806000806080858703121561220557600080fd5b600061221387828801612036565b945050602061222487828801612036565b935050604061223587828801612036565b925050606061224687828801612036565b91505092959194509250565b61225b81612dec565b82525050565b61226a81612dfe565b82525050565b61227981612e41565b82525050565b600061228a82612cb0565b6122948185612cc6565b93506122a4818560208601612e65565b6122ad81612f57565b840191505092915050565b60006122c5601f83612cc6565b91506122d082612f68565b602082019050919050565b60006122e8602383612cc6565b91506122f382612f91565b604082019050919050565b600061230b602783612cc6565b915061231682612fe0565b604082019050919050565b600061232e603183612cc6565b91506123398261302f565b604082019050919050565b6000612351602283612cc6565b915061235c8261307e565b604082019050919050565b6000612374601f83612cc6565b915061237f826130cd565b602082019050919050565b6000612397602883612cc6565b91506123a2826130f6565b604082019050919050565b60006123ba602583612cc6565b91506123c582613145565b604082019050919050565b60006123dd602483612cc6565b91506123e882613194565b604082019050919050565b6000612400602283612cc6565b915061240b826131e3565b604082019050919050565b6000612423602683612cc6565b915061242e82613232565b604082019050919050565b6000612446601783612cc6565b915061245182613281565b602082019050919050565b6000612469601d83612cc6565b9150612474826132aa565b602082019050919050565b600061248c602583612cc6565b9150612497826132d3565b604082019050919050565b60006124af602683612cc6565b91506124ba82613322565b604082019050919050565b60006124d2602383612cc6565b91506124dd82613371565b604082019050919050565b60006124f5601b83612cc6565b9150612500826133c0565b602082019050919050565b6000612518602183612cc6565b9150612523826133e9565b604082019050919050565b600061253b602583612cc6565b915061254682613438565b604082019050919050565b600061255e602583612cc6565b915061256982613487565b604082019050919050565b6000612581600083612cbb565b915061258c826134d6565b600082019050919050565b60006125a4602183612cc6565b91506125af826134d9565b604082019050919050565b60006125c7602583612cc6565b91506125d282613528565b604082019050919050565b60006125ea602483612cc6565b91506125f582613577565b604082019050919050565b600061260d602183612cc6565b9150612618826135c6565b604082019050919050565b6000612630602e83612cc6565b915061263b82613615565b604082019050919050565b6000612653602883612cc6565b915061265e82613664565b604082019050919050565b6000612676602583612cc6565b9150612681826136b3565b604082019050919050565b6000612699602283612cc6565b91506126a482613702565b604082019050919050565b60006126bc602583612cc6565b91506126c782613751565b604082019050919050565b60006126df601f83612cc6565b91506126ea826137a0565b602082019050919050565b6000612702602283612cc6565b915061270d826137c9565b604082019050919050565b61272181612e2a565b82525050565b61273081612e34565b82525050565b600061274182612574565b9150819050919050565b60006060820190506127606000830186612252565b61276d6020830185612252565b61277a6040830184612718565b949350505050565b60006040820190506127976000830185612252565b6127a46020830184612718565b9392505050565b60006020820190506127c06000830184612261565b92915050565b60006020820190506127db6000830184612270565b92915050565b600060208201905081810360008301526127fb818461227f565b905092915050565b6000602082019050818103600083015261281c816122b8565b9050919050565b6000602082019050818103600083015261283c816122db565b9050919050565b6000602082019050818103600083015261285c816122fe565b9050919050565b6000602082019050818103600083015261287c81612321565b9050919050565b6000602082019050818103600083015261289c81612344565b9050919050565b600060208201905081810360008301526128bc81612367565b9050919050565b600060208201905081810360008301526128dc8161238a565b9050919050565b600060208201905081810360008301526128fc816123ad565b9050919050565b6000602082019050818103600083015261291c816123d0565b9050919050565b6000602082019050818103600083015261293c816123f3565b9050919050565b6000602082019050818103600083015261295c81612416565b9050919050565b6000602082019050818103600083015261297c81612439565b9050919050565b6000602082019050818103600083015261299c8161245c565b9050919050565b600060208201905081810360008301526129bc8161247f565b9050919050565b600060208201905081810360008301526129dc816124a2565b9050919050565b600060208201905081810360008301526129fc816124c5565b9050919050565b60006020820190508181036000830152612a1c816124e8565b9050919050565b60006020820190508181036000830152612a3c8161250b565b9050919050565b60006020820190508181036000830152612a5c8161252e565b9050919050565b60006020820190508181036000830152612a7c81612551565b9050919050565b60006020820190508181036000830152612a9c81612597565b9050919050565b60006020820190508181036000830152612abc816125ba565b9050919050565b60006020820190508181036000830152612adc816125dd565b9050919050565b60006020820190508181036000830152612afc81612600565b9050919050565b60006020820190508181036000830152612b1c81612623565b9050919050565b60006020820190508181036000830152612b3c81612646565b9050919050565b60006020820190508181036000830152612b5c81612669565b9050919050565b60006020820190508181036000830152612b7c8161268c565b9050919050565b60006020820190508181036000830152612b9c816126af565b9050919050565b60006020820190508181036000830152612bbc816126d2565b9050919050565b60006020820190508181036000830152612bdc816126f5565b9050919050565b6000602082019050612bf86000830184612718565b92915050565b6000604082019050612c136000830185612718565b612c206020830184612718565b9392505050565b6000606082019050612c3c6000830186612718565b612c496020830185612718565b612c566040830184612261565b949350505050565b6000606082019050612c736000830186612718565b612c806020830185612718565b612c8d6040830184612718565b949350505050565b6000602082019050612caa6000830184612727565b92915050565b600081519050919050565b600081905092915050565b600082825260208201905092915050565b6000612ce282612e2a565b9150612ced83612e2a565b9250827fffffffffffffffffffffffffffffffffffffffffffffffffffffffffffffffff03821115612d2257612d21612eca565b5b828201905092915050565b6000612d3882612e2a565b9150612d4383612e2a565b925082612d5357612d52612ef9565b5b828204905092915050565b6000612d6982612e2a565b9150612d7483612e2a565b9250817fffffffffffffffffffffffffffffffffffffffffffffffffffffffffffffffff0483118215151615612dad57612dac612eca565b5b828202905092915050565b6000612dc382612e2a565b9150612dce83612e2a565b925082821015612de157612de0612eca565b5b828203905092915050565b6000612df782612e0a565b9050919050565b60008115159050919050565b600073ffffffffffffffffffffffffffffffffffffffff82169050919050565b6000819050919050565b600060ff82169050919050565b6000612e4c82612e53565b9050919050565b6000612e5e82612e0a565b9050919050565b60005b83811015612e83578082015181840152602081019050612e68565b83811115612e92576000848401525b50505050565b60006002820490506001821680612eb057607f821691505b60208210811415612ec457612ec3612f28565b5b50919050565b7f4e487b7100000000000000000000000000000000000000000000000000000000600052601160045260246000fd5b7f4e487b7100000000000000000000000000000000000000000000000000000000600052601260045260246000fd5b7f4e487b7100000000000000000000000000000000000000000000000000000000600052602260045260246000fd5b6000601f19601f8301169050919050565b7f737761703a2073706365537761703a205472616e73666572206661696c656400600082015250565b7f45524332303a207472616e7366657220746f20746865207a65726f206164647260008201527f6573730000000000000000000000000000000000000000000000000000000000602082015250565b7f72656d6f76654c69717569646974793a2052656d6f76696e672062656c6f772060008201527f6d696e2065746800000000000000000000000000000000000000000000000000602082015250565b7f72656d6f76654c69717569646974793a20547279696e6720746f20726564656560008201527f6d20746f6f206d616e7920746f6b656e73000000000000000000000000000000602082015250565b7f45524332303a206275726e20616d6f756e7420657863656564732062616c616e60008201527f6365000000000000000000000000000000000000000000000000000000000000602082015250565b7f737761703a20556e73756363657366756c207377617020666f72205350434500600082015250565b7f6164644c69717569646974793a206e6f7420656e6f7567682065746820636f6e60008201527f7472696275746564000000000000000000000000000000000000000000000000602082015250565b7f737761703a205350434520616d7420746f2072656369657665203e206d696e5260008201527f657475726e000000000000000000000000000000000000000000000000000000602082015250565b7f737761703a2045544820616d7420746f2072656369657665203e206d696e526560008201527f7475726e00000000000000000000000000000000000000000000000000000000602082015250565b7f45524332303a20617070726f766520746f20746865207a65726f20616464726560008201527f7373000000000000000000000000000000000000000000000000000000000000602082015250565b7f71756f74653a204e6f206c697175696469747920746f20636f6d70617265206160008201527f6761696e73740000000000000000000000000000000000000000000000000000602082015250565b7f71756f74653a20496e76616c696420616d6f756e742041000000000000000000600082015250565b7f45524332303a20696e73756666696369656e7420616c6c6f77616e6365000000600082015250565b7f737761703a205370636520737761702c20627574206574682077617320696e6360008201527f6c75646564000000000000000000000000000000000000000000000000000000602082015250565b7f45524332303a207472616e7366657220616d6f756e742065786365656473206260008201527f616c616e63650000000000000000000000000000000000000000000000000000602082015250565b7f6765744f7074696d616c416d6f756e74733a20496e737566666963656e74205360008201527f5043450000000000000000000000000000000000000000000000000000000000602082015250565b7f52656d61696e696e67204574682052657475726e206661696c65640000000000600082015250565b7f45524332303a206275726e2066726f6d20746865207a65726f2061646472657360008201527f7300000000000000000000000000000000000000000000000000000000000000602082015250565b7f45524332303a207472616e736665722066726f6d20746865207a65726f20616460008201527f6472657373000000000000000000000000000000000000000000000000000000602082015250565b7f72656d6f7665206c69717569646974793a20657468207472616e73666572206660008201527f61696c6564000000000000000000000000000000000000000000000000000000602082015250565b50565b7f72656d6f76654c69717569646974793a204e6f2065746820746f2072656d6f7660008201527f6500000000000000000000000000000000000000000000000000000000000000602082015250565b7f737761703a2045746820737761702c2062757420737063652077617320696e6360008201527f6c75646564000000000000000000000000000000000000000000000000000000602082015250565b7f45524332303a20617070726f76652066726f6d20746865207a65726f2061646460008201527f7265737300000000000000000000000000000000000000000000000000000000602082015250565b7f676574546f6b656e73546f4d696e743a204d6164652030204c5020546f6b656e60008201527f7300000000000000000000000000000000000000000000000000000000000000602082015250565b7f72656d6f76654c69717569646974793a206d75737420696e7075742061746c6560008201527f6173742031204c5020746f6b656e000000000000000000000000000000000000602082015250565b7f72656d6f76654c69717569646974793a2052656d6f76696e672062656c6f772060008201527f6d696e2073706365000000000000000000000000000000000000000000000000602082015250565b7f737761703a204d7573742073656e6420696e2065697468657220455448206f7260008201527f2053504345000000000000000000000000000000000000000000000000000000602082015250565b7f6765744f7074696d616c416d6f756e74733a20496e737566666963656e74204560008201527f5448000000000000000000000000000000000000000000000000000000000000602082015250565b7f45524332303a2064656372656173656420616c6c6f77616e63652062656c6f7760008201527f207a65726f000000000000000000000000000000000000000000000000000000602082015250565b7f45524332303a206d696e7420746f20746865207a65726f206164647265737300600082015250565b7f72656d6f76654c69717569646974793a204e6f207370636520746f2072656d6f60008201527f7665000000000000000000000000000000000000000000000000000000000000602082015250565b61382181612dec565b811461382c57600080fd5b50565b61383881612dfe565b811461384357600080fd5b50565b61384f81612e2a565b811461385a57600080fd5b5056fea264697066735822122041370beef496769883d61186981714675dc857a2c018fa590289475ecb23c0ed64736f6c63430008040033",
  "linkReferences": {},
  "deployedLinkReferences": {}
}